:020000040800F2
:10000000C0040020D9000008050F00083F0E0008BA
:1000100000000000000000000000000000000000E0
:10002000000000000000000000000000090F0008B0
:100030000000000000000000070F00080B0F000880
:100040000901000809010008090100080901000868
:100050000901000809010008090100080901000858
:100060000901000809010008090100080901000848
:100070000901000809010008090100080901000838
:10008000090100080000000000000000090100084C
:10009000000000000901000809010008090100082A
:1000A000000000000901000809010008C112000851
:1000B000090100080000000009010008090100080A
:1000C0000448854600F0AEF8004800478514000853
:1000D000C046C046C00400200C4880F308880C4885
:1000E0000168090E0B4A914205D10B480B4901608A
:1000F0000B480C4901600C4880470C480047FEE75C
:10010000FEE7FEE7FEE7FEE7FEE70000C004002092
:10011000040000001F000000181002400100000051
:1001200000000140000000007B0F0008C100000833
:1001300030B50B46014600202022012409E00D467F
:10014000D5409D4205D31D469540491B2546954007
:1001500040191546521E002DF1DC30BDF0B51FB41C
:100160000646002082B005464024019100901BE025
:10017000019922460F46304600F020F8049A059B6C
:10018000801A994110D310461946224600F039F8DA
:10019000361A8F410197224601200021009F00F06E
:1001A00030F838184D4100902046641E0028DFDCEE
:1001B000019B00982946324607B0F0BD10B5202AB1
:1001C00004DB0846203AD040002110BD0B46D34046
:1001D000D0402024A21A91400843194610BDD2B243
:1001E00001E00270401C491EFBD270470022F6E776
:1001F00010B513460A4604461946FFF7F0FF20469D
:1002000010BD10B5202A04DB0146203A91400020A1
:1002100010BD914020239C1A0346E34019439040AF
:1002200010BD0000064C0125064E05E0E36807CC32
:100230002B430C3C98471034B442F7D3FFF744FFEC
:10024000A8150008C815000872B6FEE770B50024AE
:10025000014620314A78022A03D004218163012417
:1002600016E0026813680E25AB431360026813683A
:100270005B085B0013600122056C1346AB40C56B45
:100280006B604A7000220A70416B002900D08847D9
:10029000204670BD70B5044600F0C6F80546601CE7
:1002A00002D004480078241800F0BEF8401BA04299
:1002B000FAD370BD20000020FCB5002301249CE08F
:1002C00027462A469F403A4073D04D68012D05D0FD
:1002D000022D03D0112D01D0122D16D185680326D1
:1002E000AC465D00AE46AE406546B543AC46CE6812
:1002F0007546AE4065462E43866046680D79BE431E
:10030000ED06ED0F9D4035434560C6685F0003254F
:10031000BD40AE46AE4335468E68BE402E43C660F5
:100320004E68022E01D0122E14D1DE08B600361807
:100330000196366A5D07B446EE0E0F25B54000966D
:100340006646AE43B4460D69009EB54066462E43F0
:10035000019D2E6206687546AE430D79AD07AD0F5F
:10036000BD40354305604D68ED0045D5264DAE696D
:100370002643AE61AD699E08ED07ED0F0095234D54
:10038000B6007519AC46AD689E07360F0F27B7400B
:10039000BD430927FF06B84201D100270BE01C4FDF
:1003A000B84201D1012706E01A4FB84202D1022714
:1003B00001E021E00527B7402F436546AF60164EA8
:1003C00035684F689543FF0300D515433560756860
:1003D0004F689543BF0300D515437560B5684F68F6
:1003E0009543FF0200D51543B560F5684F68954306
:1003F000BF0200D51543F5605B1C0A681546DA405C
:1004000000D05DE7FCBD000000100240000001408C
:10041000000400480008004800040140002A01D000
:1004200081617047816270470148806870470000B1
:100430002000002002488168027889188160704796
:100440002000002010B50648016810221143016009
:10045000002000F007F800F027F8002010BD000091
:100460000020024070B504460D4D7D202978C00063
:10047000FFF75EFE01460B480068FFF759FE00F0EB
:10048000A3FB002809D1042C07D200222146401EDC
:1004900000F02AF800206C6070BD012070BD0000E3
:1004A000200000202C00002008B5084881690122A6
:1004B00011438161816911400091C26901040A43BD
:1004C000C261C0690840009008BD000000100240F1
:1004D000002805DBC106C90E0120884001490860DB
:1004E0007047000000E100E010B500F065FF10BDAE
:1004F000F8B5044600683E4DC00352D5E8690026B1
:10050000C00007D4E96928040143E961E9690140B1
:100510000126009137480168C90510D40168821589
:1005200011430160FFF780FF074604E0FFF77CFFFF
:10053000C01B642824D82F480068C005F6D5286A57
:1005400003273F02384020D06168394081421CD0E7
:10055000286A2A6AB843012109040A432A622A6ADE
:100560008A432A622862C0070FD0FFF75DFF009020
:1005700008E0FFF759FF0099411A1F48814201D94D
:100580000320F8BD286A8007F3D5286A6168B8435C
:1005900008432862002E04D0E96901200007814346
:1005A000E9612078C00705D0286BA1688008800029
:1005B000084328632078800605D5286B10218843DE
:1005C000E168084328632068800305D5286B8021F3
:1005D00088436169084328632088400505D5286B56
:1005E000402188432169084328630020F8BD0000AA
:1005F000001002400070004088130000F8B50F465C
:1006000006005FD03D4D2868C007C00FB84209D230
:10061000286840084000384328602868C007C00F99
:10062000B8424FD13068364C81070CD5400704D50D
:10063000606807210902084360606068F021884310
:10064000B168084360603078C0072CD0706801281A
:1006500010D0022811D0032812D021688907002960
:1006600030DA61688908890001436160FFF7DCFEC8
:10067000009011E021688903F1E721688901EEE724
:10068000616BC903EBE7FFF7CFFE0099411A1D48E4
:10069000814201D90320F8BD60680C2108407168CF
:1006A00089008842EFD12868C007C00FB8420BD933
:1006B000286840084000384328602868C007C00FF9
:1006C000B84201D00120F8BD3078400706D56068F7
:1006D000072109028843F1680843606000F028F8A8
:1006E0006168094A0906090F515CC840074908605A
:1006F0000020FFF7B7FE0020F8BD000000200240F8
:100700000010024088130000901500082C00002003
:100710000448054900684968044A4905490F515C85
:10072000C84070472C00002000100240A0150008AF
:1007300030B519A30FCB89B06C460FC41AA30FCBE9
:100740000FC41D4A51680C200B4603401B48042B64
:1007500005D01B4D082B04D00C2B00D1284609B026
:1007600030BD8B021B0F6C46E45CD26A04AB1207EF
:10077000120FC9039A5C890F022901D0032901D005
:10078000002301E0002328460021FFF7E7FC214673
:1007900000F0FAFDE3E7000002030405060708097C
:1007A0000A0B0C0D0E0F10100102030405060708BA
:1007B000090A0B0C0D0E0F100010024000127A00F7
:1007C000006CDC02FEB5040070D02078F94EFA4DC2
:1007D000C00748D068680007800F01281FD06868EC
:1007E0000007800F022804D16868C003800F022828
:1007F00015D06168012919D001208004002901D099
:10080000052917D02968B1432960296881432960E7
:10081000606800281BD0FFF707FE074613E0286832
:10082000800320D560680028CED01CE028683043C3
:100830002860EDE7296801432960F7E7FFF7F4FD39
:10084000C01B642870D828688003F7D50BE0FFF739
:10085000EBFD074604E0FFF7E7FDC01B6428F1D875
:1008600028688003F7D4207880073FD568680007A0
:10087000800F14D068680007800F022804D16868D0
:10088000C003800F01280AD0E068002828681ED025
:10089000012108432860FFF7C7FD07460CE02868E0
:1008A00080070CD5E068012800D108E080E1FFF75F
:1008B000BBFDC01B0228C5D828688007F7D528686B
:1008C000F82188432169C900084328600EE04008E8
:1008D00040002860FFF7A8FD074604E0FFF7A4FDED
:1008E000C01B0228AED828688007F7D420780007FC
:1008F00023D5E0690028686A0FD0012108436862A7
:10090000FFF792FD074604E0FFF78EFDC01B0228AB
:1009100098D8686A8007F7D50FE040084000686201
:10092000FFF782FD074605E0C3E0FFF77DFDC01B32
:10093000022887D8686A8007F7D420780427400700
:10094000002861DA00200190E869C00008D4E96954
:10095000B8060143E961E969014001200091019075
:1009600096480168C90511D40168821511430160D8
:10097000FFF75AFD009005E0FFF756FD0099401A79
:10098000642898D88D480068C005F5D5A06801286E
:100990000AD0002801D0052811D0286A400840005C
:1009A0002862286AB84302E0286A012108432862C5
:1009B000A068002812D0FFF737FD00900AE0286AEF
:1009C00038432862F0E7FFF72FFD0099411A7C4871
:1009D00081426ED8286A8007F5D50DE0FFF724FD27
:1009E000009006E0FFF720FD0099411A744881420B
:1009F0005FD8286A8007F5D40198002804D0E969F7
:100A0000012000078143E9612078C00635D560697F
:100A100001280CD0401D686B24D038436863686B94
:100A2000400840006863FFF7FFFC074622E0686B60
:100A300038436863686B012108436863FFF7F4FC7F
:100A4000074604E0FFF7F0FCC01B022831D8686BB2
:100A50008007F7D5686BF8218843A169C90008436E
:100A600068630AE0B8436863F4E7FFF7DDFCC01B86
:100A700002281ED8686B8007F7D42078800637D507
:100A800068680007800F032814D068680007800F8B
:100A9000022804D16868C003800F03280AD0206AA6
:100AA0000028686B16D030436863FFF7BDFC06462C
:100AB0000CE062E0686BC0031AD5206A012877D188
:100AC00016E0FFF7B1FC801B022856D8686BC00304
:100AD000F7D50DE0B0436863FFF7A6FC064604E0D7
:100AE000FFF7A2FC801B022847D8686BC003F7D42D
:100AF000606A002866D069680907890F022942D018
:100B0000012636060228286805D0B0432860FFF782
:100B10008BFC044633E0B0432860FFF785FC0746B2
:100B200004E0FFF781FCC01B022826D8286880015A
:100B3000F7D4E86A216B000900010843E862A16A62
:100B4000E06A084369687B22D203914308436860E6
:100B5000286830432860FFF767FC044604E0FFF78D
:100B600063FC001B022808D828688001F7D529E01B
:100B7000FFF75AFC001B022801D90320FEBD28689C
:100B80008001F5D41EE00128F8D06868E96A0322E4
:100B9000D203A36A02409A420AD10907226B090FC5
:100BA000914205D10F2189040840E16A884209D0A9
:100BB0000120FEBD00000100001002400070004056
:100BC000881300000020F4E7094910B5401E884250
:100BD00001D9012010BD074C60610321081F00F0FE
:100BE000EBFB0020A06107202061002010BD000069
:100BF000FFFFFF0000E000E070477047F8B50268B3
:100C00000446D06911689368524D05402E46202550
:100C1000002E68D0DE07F60FFF2721370F4037433D
:100C200075D0C70706D0CF0504D501271762E26F3C
:100C30003A43E267820708D5DA0706D0276802221E
:100C40003A62E26F04273A43E267420708D5DA07BF
:100C500006D0236804221A62E26F02231A43E26775
:100C6000020709D50A462A40324305D023680822E4
:100C70001A62E36F1343E367020508D54A0106D5FC
:100C800001222368D2021A62E26F2A43E267E26F0E
:100C9000002A30D0800606D5880604D5216E0029AA
:100CA00001D020468847E06F21688968490602D450
:100CB0002821084224D0204600F000FA20688168EC
:100CC000490619D58168402291438160E06E002871
:100CD00012D021494163E06EFFF7B8FA00280AD02C
:100CE000E06E416B06E0860611D58E060FD5216EAB
:100CF0001DE020468847F8BD2046FFF77EFFF8BD7F
:100D00002046FFF77AFF0020E067F8BDFFE7C60244
:100D100008D55B0206D50120000510622046FFF7CA
:100D20006BFFF2E7030605D50B0603D5616E0029BC
:100D3000DFD1EAE74006E8D54806E6D51368204645
:100D400040218B43136065670021616600F076F8EF
:100D5000DBE700000F080000A910000810B5040030
:100D600003D0606F002802D007E0012010BD0021F1
:100D700070200155204600F027F824206067206885
:100D80000168490849000160204600F0A7F90128E0
:100D9000ECD0606A002802D0204600F0EFF820680E
:100DA00041680922D20291434160206881682A2269
:100DB000914381602068016801221143016020464F
:100DC00000F042F910BD000010B586B004461421B1
:100DD0006846FFF70BFA17492068884227D1164862
:100DE0008269012189030A43826182690A4005926E
:100DF0004269C9000A4342614069084005900320E6
:100E000040020090022001900020029003200390F5
:100E10000120049009206946C006FFF74DFA002220
:100E200011461B20FFF760FB1B20FFF751FB06B0AC
:100E300010BD000000380140001002407047FEE77E
:100E4000F0B587B014216846FFF7D0F91C48426915
:100E5000012189050A43426142690A4005924269BB
:100E600049110A4342614069164E0840059000222C
:100E700002213046FFF7D2FA0927FF060022062199
:100E80003846FFF7CBFA0220002401250090029497
:100E90006946019503943046FFF70EFA09206A4629
:100EA00031C269463846FFF707FA062000900294DF
:100EB0006946019503943846FFF7FEF907B0F0BD87
:100EC000001002400014004810B50C480A490160A7
:100ED0000B490C220968416000218160C1600161F9
:100EE0008161C161016242614162FFF737FF002801
:100EF00001D0FFF7A9F910BD0038014030000020F3
:100F000004000020FEE77047704710B5FFF792FA23
:100F100010BD30B597B034216846FFF767F900245B
:100F20000D940E940F94182111A81094FFF75EF9F8
:100F3000202001250090089509946846FFF742FC9F
:100F4000002801D072B6FEE707200D9003200E9016
:100F50000F94012110940DA8FFF750FB002801D039
:100F600072B6FEE711A811951394FFF7C1FA002895
:100F700001D072B6FEE717B030BD704710B5818C56
:100F8000C90707D001684A6801235B049A43836A52
:100F90001A434A60818C890707D501684A68012392
:100FA0001B049A43C36A1A434A60818C490707D5D8
:100FB00001684A6801239B049A43036B1A434A6001
:100FC000818C090707D501684A680123DB039A432E
:100FD000436B1A434A60818CC90607D50268916841
:100FE00001231B039943836B19439160818C89060C
:100FF00007D501688A6801235B039A43C36B1A43D0
:101000008A60818C490612D503685A680121090556
:10101000046C8A4322435A60026C8A4207D10268F8
:10102000516803235B059943436C19435160818CDC
:10103000090607D501684A680123DB04806C9A43DE
:1010400002434A6010BD0000F8B500260446C6679A
:10105000FFF7EAF9054620680068124F000709D536
:1010600001212B46002249052046009700F0DAF8BE
:1010700000280DD12068006840070BD501212B46C0
:10108000002289052046009700F0CCF8002801D006
:101090000320F8BD20206067A0676034267400201C
:1010A000F8BD0000FFFFFF0110B5406A00220146B5
:1010B00040314A834A82FFF7A0FD10BD01680A68EB
:1010C000FF2321339A430A6001688A68520852005C
:1010D0008A602021816700210166704770B504464F
:1010E00080682169E269084361690025114322682B
:1010F00008431168444B1940014311602168486856
:10110000032212039043E26810434860A169206AF9
:101110002268084391680B231B02994301439160A5
:101120003A492068884210D13948006B8007800F07
:1011300011D0012805D0022805D003280AD10220A9
:1011400009E0042007E0082005E03249884201D187
:10115000002000E010200122E169D2032E4E9142CE
:1011600028D1002806D0022807D0042817D0082844
:1011700044D11AE0FFF7CCFA13E06168274A480827
:101180008018FEF7D5FF80B201461039B14235D83C
:101190002149491C01400007400F084321E0FFF7A7
:1011A000C7FA616840004A08EAE761680122480816
:1011B0001204E5E7002806D0022807D0042813D03F
:1011C00008281BD116E0FFF7A3FA0FE06168144A64
:1011D000480811E0FEF7ACFF80B201461039B14279
:1011E0000CD82168C8600AE0FFF7A2FA61684A08D3
:1011F0001018EFE7616848088018EBE70125002028
:1012000020666066284670BDF369FFEF0038014034
:101210000010024000440040EFFF00000024F400F2
:1012200000127A00FFB581B005460F4604466035CE
:101230000A9E38E0701C36D0FFF7F6F80499401A81
:10124000B04221D8002E1FD02068016849072AD556
:10125000C069C043000526D401202168C00208628D
:1012600020680168FF22A1329143016020688168F3
:1012700049084900816020206067A067E06700207E
:101280002874032005B0F0BD20680168FF22A13258
:1012900091430160206881684908490081602020ED
:1012A0006067A067EBE72068C1693846884305D0CE
:1012B000002103988142BDD00020E3E70121F8E737
:1012C000F8B52C48FFF79AFC2A48006801682022EC
:1012D000114301602848C069800615D52648203092
:1012E00080880126C2B20025244C25485A2A0CD0F9
:1012F0000178FF2A13D00A2936D900216554491CE8
:10130000C9B20B29FAD30570F8BD00216554491CF8
:10131000C9B20B29FAD35A2121700670F8BD0A29E7
:1013200007D0EAD200216554491CC9B20B29FAD36F
:10133000E9E71348A2721149401C00F095F8114FDB
:10134000002806D10E480D490C3000F08DF8002819
:1013500002D038783043387000202554401CC0B289
:101360000B28FAD30648CEE70029D7D06254491C8F
:101370000170F8BD3000002000380140B0000020AE
:101380000800002001000020F8B5040C8BB22646AE
:1013900082B25E430D0C1046370C58433604801958
:1013A0000021794116466E43370C36048019794185
:1013B00026466E438919F8BD8307FF22DB0E9A404B
:1013C0008907090E9940002808DB830809489B001B
:1013D0001B18186890430843186070470007000FF7
:1013E0000838830804489B001B18D86990430843B9
:1013F000D861704700E400E000ED00E002E008C8BA
:10140000121F08C1002AFAD170477047002001E07E
:1014100001C1121F002AFBD17047000010B5104C0B
:10142000607800281AD0C10718D0400840006070CA
:10143000FF202D30FEF72EFF20780121484020703C
:101440000920C00641690422914341610548416970
:101450000222914341614B20C000608010BD00001A
:10146000000000200014004810B50022835C8C5C52
:10147000A34201D0002010BD521CD2B20B2AF5D3DA
:10148000012010BDFEF7DEFFFFF743FDFFF7D8FC9C
:10149000FFF71AFDFF202D30FEF7FCFE0924E406BD
:1014A0002069364801210160354AC906116001688A
:1014B0002C2211430160616904208143616131483C
:1014C000426902218A434261002637463546FFF7CA
:1014D000A5FF2D48761C4088B6B286420BD96069BC
:1014E00000260221484060610A20FEF7D3FE6069B1
:1014F0000221484060610120FEF7CCFE002D09D09A
:101500002069C00700D100256D1C2048ADB285427E
:1015100000D300252069C00709D11B484B21408812
:10152000C900884203D3002F01D1002D0FD02069BC
:10153000C007CCD0002FCAD07D20C000FEF7AAFE85
:101540002069C007C3D000276D1CADB2BFE77D2066
:10155000C000FEF79FFE2069C007B8D16069042172
:101560000843606107484169022211434161FF203D
:101570002D30054901274880A9E7000000380140C7
:1015800000E100E000140048000000203075000079
:101590000000000000000000010203040607080923
:1015A0000000000001020304C8150008000000202C
:1015B00030000000FC130008F8150008300000207F
:1015C000900400000C1400080000580200C2010042
:1015D000005AA5023D20027101002CFF5AA5023DD0
:1015E00020027101002CFF00010000000400000037
:0815F0000000000000127A0067
:04000005080000C12E
:00000001FF
