:020000040800F2
:10000000C8050020C9000008C9100008830F0008B7
:1000100000000000000000000000000000000000E0
:10002000000000000000000000000000CD100008EB
:100030000000000000000000CB100008CF100008F6
:10004000DB00000800000000DB000008DB00000807
:10005000DB000008DB000008DB000008DB00000814
:1000600000000000DB000008DB000008DB000008E7
:10007000DB000008DB000008DB00000800000000D7
:10008000DB00000800000000000000005111000823
:1000900000000000DB000008DB000008DB000008B7
:1000A00000000000DB0000080000000065150008EB
:1000B0000448854600F090F80048004735180008CD
:1000C000C046C046C8050020044880470448004791
:1000D000FEE7FEE7FEE7FEE7FEE7FEE74F1100085A
:1000E000B100000830B50B46014600202022012453
:1000F00009E00D46D5409D4205D31D469540491B5C
:100100002546954040191546521E002DF1DC30BDA4
:10011000F0B51FB40646002082B005464024019188
:1001200000901BE0019922460F46304600F020F86F
:10013000049A059B801A994110D31046194622460D
:1001400000F039F8361A8F4101972246012000212C
:10015000009F00F030F838184D4100902046641E92
:100160000028DFDC019B00982946324607B0F0BD2D
:1001700010B5202A04DB0846203AD040002110BDEB
:100180000B46D340D0402024A21A91400843194680
:1001900010BDD2B201E00270401C491EFBD2704774
:1001A0000022F6E710B513460A4604461946FFF743
:1001B000F0FF204610BD10B5202A04DB0146203A8E
:1001C0009140002010BD914020239C1A0346E3403B
:1001D0001943904010BD0000064C0125064E05E075
:1001E000E36807CC2B430C3C98471034B442F7D358
:1001F000FFF762FF88190008A819000872B6FEE729
:1002000070B50024014620314A78022A03D0042127
:100210008163012416E0026813680E25AB43136066
:10022000026813685B085B0013600122056C1346CB
:10023000AB40C56B6B604A7000220A70416B0029AD
:1002400000D08847204670BD70B5044600F0CCF859
:100250000546601C02D004480078241800F0C4F859
:10026000401BA042FAD370BD1C000020FCB5002347
:100270000124A1E027462A469F403A4073D04D68AA
:10028000012D05D0022D03D0112D01D0122D16D134
:1002900085680326AC465D00AE46AE406546B54374
:1002A000AC46CE687546AE4065462E4386604668CD
:1002B0000D79BE43ED06ED0F9D4035434560C668A0
:1002C0005F000325BD40AE46AE4335468E68BE4056
:1002D0002E43C6604E68022E01D0122E14D1DE08C5
:1002E000B60036180196366A5D07B446EE0E0F2545
:1002F000B54000966646AE43B4460D69009EB540D3
:1003000066462E43019D2E6206687546AE430D7902
:10031000AD07AD0FBD40354305604D68ED004AD5D2
:10032000284DAE692643AE61AD699E08ED07ED0F1D
:100330000095254DB6007519AC46AD689E07360F81
:100340000F27B740BD430927FF06B84201D1002758
:1003500010E01E4FB84201D101270BE01C4FB842FC
:1003600002D1022706E026E01A4FB84201D1032746
:1003700000E00527B7402F436546AF60164E35684D
:100380004F689543FF0300D51543356075684F6886
:100390009543BF0300D515437560B5684F68954315
:1003A000FF0200D51543B560F5684F689543BF025D
:1003B00000D51543F5605B1C0A681546DA4000D08D
:1003C00058E7FCBD00100240000001400004004856
:1003D00000080048000C004800040140002A01D039
:1003E00081617047816270470148806870470000F2
:1003F0001C00002070B504000FD02168134808606D
:1004000021681348086003CC41602068083C2168DB
:100410008860FFF7E9FF054608E0012070BDFFF79F
:10042000E3FF401B302801D9032070BD2068C0685D
:100430000028F4D120680269E1688A4201D0016194
:1004400001E004490160002070BD0000CCCC000038
:1004500055550000AAAA0000024881680278891850
:10046000816070471C00002010B50648016810220A
:1004700011430160002000F007F800F027F8002089
:1004800010BD00000020024070B504460D4D7D20D7
:100490002978C000FFF726FE01460B480068FFF7E9
:1004A00021FE00F043FB002809D1042C07D20022D2
:1004B0002146401E00F02AF800206C6070BD01202B
:1004C00070BD00001C0000202800002008B508486E
:1004D0008169012211438161816911400091C269E2
:1004E00001040A43C261C0690840009008BD0000D1
:1004F00000100240002805DBC106C90E012088401B
:10050000014908607047000000E100E010B501F00B
:10051000B9F810BDF8B505460068354CC00352D592
:10052000E0690026C00007D4E16920040143E161CD
:10053000E1690140012600912E480168C90510D4E7
:100540000168821511430160FFF74EFF074604E082
:10055000FFF74AFFC01B642824D826480068C0055E
:10056000F6D5206A03273F02384020D06968394019
:1005700081421CD0206A226AB843012109040A433F
:100580002262226A8A4322622062C0070FD0FFF7EC
:100590002BFF009008E0FFF727FF0099411A16484B
:1005A000814201D90320F8BD206A8007F3D5206A73
:1005B0006968B84308432062002E04D0E169012035
:1005C00000078143E1612878C00705D0206BA96846
:1005D00080088000084320632878800605D5206BBA
:1005E00010218843E968084320630020F8BD00001B
:1005F000001002400070004088130000F8B50F465C
:10060000060059D03A4D2868C007C00FB84209D239
:10061000286840084000384328602868C007C00F99
:10062000B84249D13068334C81070CD5400704D516
:10063000606807210902084360606068F021884310
:10064000B168084360603078C00726D07068012820
:100650000ED0216802280ED0890700292CDA6168A3
:100660008908890001436160FFF7BEFE00900DE03C
:1006700021688903F1E78901EFE7FFF7B5FE0099EB
:10068000411A1D48814201D90320F8BD60680C2140
:100690000840716889008842EFD12868C007C00F00
:1006A000B8420BD9286840084000384328602868C1
:1006B000C007C00FB84201D00120F8BD3078400714
:1006C00006D56068072109028843F1680843606025
:1006D00000F028F86168094A0906090F515CC84012
:1006E000074908600020FFF7CFFE0020F8BD00009A
:1006F000002002400010024088130000701900081A
:10070000280000200448054900684968044A490552
:10071000490F515CC840704728000020001002407B
:100720008019000810B514A30FCB88B06C460FC415
:1007300015A30FCB0FC4184A51680C200B46034079
:100740001648042B16D0082B14D18B021B0F6C46B5
:10075000E45CD26A04AB1207120F9A5CC90305D598
:1007600000231946FFF7D4FC214601E020460C493E
:1007700000F070FF08B010BD020304050607080969
:100780000A0B0C0D0E0F10100102030405060708DA
:10079000090A0B0C0D0E0F100010024000127A0017
:1007A00000093D00FEB5040070D02078DC4DC00784
:1007B0004AD068680007800F012807D068680007E2
:1007C000800F022809D16868C00306D52868800315
:1007D0003AD560680028E7D036E06168012914D076
:1007E00001208004002901D0052914D02A680121A4
:1007F00009048A432A6029688143296060680028C7
:1008000016D0FFF7F1FD06460EE028680121090425
:1008100008432860F2E7296801432960F5E7FFF7FC
:10082000E3FD801B64286ED828688003F7D50BE0B1
:10083000FFF7DAFD064604E0FFF7D6FD801B6428CB
:10084000F1D828688003F7D4207801268007002893
:100850003CDA68680007800F07D068680007800FDF
:10086000022809D16868C00306D42868800716D515
:10087000E06801280AD112E0E0680028286816D054
:1008800030432860FFF7B0FD074605E043E1FFF77E
:10089000ABFDC01B0228C6D828688007F7D528689A
:1008A000F82188432169C900084328600EE0400808
:1008B00040002860FFF798FD074604E0FFF794FD2D
:1008C000C01B0228AFD828688007F7D4207800071B
:1008D00022D5E0690028686A0ED030436862FFF7CD
:1008E00083FD074604E0FFF77FFDC01B02289AD86E
:1008F000686A8007F7D50FE0400840006862FFF79C
:1009000073FD074605E09DE0FFF76EFDC01B022862
:1009100089D8686A8007F7D4207804274007002820
:1009200060DA00200190E869C00008D4E969B806DF
:100930000143E961E9690140012000910190794892
:100940000168C90511D40168821511430160FFF7E0
:100950004BFD009005E0FFF747FD0099401A642821
:1009600070D870480068C005F5D5A06801280AD085
:10097000002801D0052810D0286A400840002862CD
:10098000286AB84301E0286A30432862A06800283A
:1009900012D0FFF729FD00900AE0286A3843286248
:1009A000F1E7FFF721FD0099411A5F48814249D8DC
:1009B000286A8007F5D50DE0FFF716FD009006E0E8
:1009C000FFF712FD0099411A574881423AD8286A28
:1009D0008007F5D40198002804D0E96901200007B8
:1009E0008143E9612078C00635D5606901280CD0C3
:1009F000401D686B23D038436863686B4008400033
:100A00006863FFF7F1FC064622E0686B38436863D1
:100A1000686B30436863FFF7E7FC064604E0FFF7C6
:100A2000E3FC801B02285BD8686B8007F7D5686BF6
:100A3000F8218843A169C900084368630BE0B84303
:100A40006863F4E74CE0FFF7CFFC801B022847D82F
:100A5000686B8007F7D4206A00285ED069680907B0
:100A6000890F022942D0012636060228286805D0BF
:100A7000B0432860FFF7B8FC044633E0B043286079
:100A8000FFF7B2FC074604E0FFF7AEFCC01B0228EC
:100A900026D828688001F7D4E86AE16A00090001D5
:100AA0000843E862616AA06A084369683D2212044B
:100AB000914308436860286830432860FFF794FC3E
:100AC000044604E0FFF790FC001B022808D82868C1
:100AD0008001F7D521E0FFF787FC001B022801D930
:100AE0000320FEBD28688001F5D416E00128F8D067
:100AF0006868E96A01221204636A02409A420AD1D4
:100B00000907E26A090F914205D10F2189040840C3
:100B1000A16A884201D00120FEBD0020FEBD000078
:100B2000001002400070004088130000094910B511
:100B3000401E884201D9012010BD074C606103218D
:100B4000081F00F09FFD0020A06107202061002009
:100B500010BD0000FFFFFF0000E000E0704770479D
:100B600070B5040005D025462035687F002802D0E6
:100B700006E0012070BD00202877204600F00AF82A
:100B800002206877211D206800F01AFB0120687799
:100B9000002070BD08B50068094988420FD1094896
:100BA000C26981150A43C261C069002208400090F1
:100BB00011461320FFF7AAFC1320FFF79BFC08BD8A
:100BC00000200040001002400268D36801210B435E
:100BD000D360006882685207520F062A02D002686A
:100BE0000A43026000207047704770B504460068F1
:100BF00001690025C9438907002915DBC168C9437C
:100C0000890711D4E91E01610120207720688069DD
:100C10008007204602D0FFF7E7FF04E000F096F8D7
:100C2000204600F094F8257720680169C9434907F8
:100C300017D4C168C943490713D40421C9430161CA
:100C400002202077206880698005800F204602D02E
:100C5000FFF7CAFF04E000F079F8204600F077F8CB
:100C6000257720680169C943090716D4C168C943BB
:100C7000090712D40821C9430161042020772068A4
:100C8000C0698007204602D0FFF7AEFF04E000F005
:100C90005DF8204600F05BF8257720680169C943BC
:100CA000C90617D4C168C943C90613D41021C94362
:100CB0000161082020772068C0698005800F2046E8
:100CC00002D0FFF791FF04E000F040F8204600F06A
:100CD0003EF8257720680169C943C90708D1C16872
:100CE000C943C90704D1891E0161204600F030F8CC
:100CF00020680169C943090609D4C168C9430906C6
:100D000005D48021C94301612046FFF727FF2068F1
:100D10000169C943490609D4C168C943490605D4D4
:100D20004021C9430161204600F013F820680169A1
:100D3000C943890609D4C168C943890605D420215D
:100D4000C94301612046FFF70AFF70BD7047704735
:100D50007047704770470000F8B502680446D069D4
:100D6000116893684C4D06462E402025002E68D011
:100D7000DE07F60FFF2721370F40374375D0C7072F
:100D800006D0CF0504D501271762E26F3A43E26728
:100D9000820708D5DA0706D0276802223A62E26F96
:100DA00004273A43E267420708D5DA0706D02368EA
:100DB00004221A62E26F02231A43E267020709D58E
:100DC0000A462A40324305D0236808221A62E36F9C
:100DD0001343E367020508D54A0106D501222368BB
:100DE000D2021A62E26F2A43E267E26F002A30D031
:100DF000800606D5880604D5216E002901D020463C
:100E00008847E06F21688968490602D42821084292
:100E100024D0204600F0B0FA20688168490619D530
:100E20008168402291438160E06E002812D01B4906
:100E30004163E06EFFF7E4F900280AD0E06E416BF1
:100E400006E0830611D58B060FD5216E12E02046F1
:100E50008847F8BD2046FFF77DFFF8BD2046FFF725
:100E600079FF0020E067F8BDFFE7030605D50B0614
:100E700003D5616E0029EAD1F5E74006F3D54806AF
:100E8000F1D5116820464023994311606567002120
:100E9000616600F075F8E6E70F08000065130008CA
:100EA00010B5040003D0606F002802D007E00120D5
:100EB00010BD002170200155204600F027F82420A5
:100EC000606720680168490849000160204600F019
:100ED00063FA0128ECD0606A002802D0204600F0B6
:100EE000ABF9206841680122D20291434160206839
:100EF00081680822914381602068016801221143C2
:100F00000160204600F0FEF910BD000010B586B06B
:100F1000044614216846FFF743F9174920688842C0
:100F200027D116488269012189030A4382618269B7
:100F30000A4005924269C9000A434261406908407B
:100F400005900320400200900220019000200290B2
:100F5000032003900120049009206946C006FFF792
:100F600085F9002211461B20FFF7D0FA1B20FFF75E
:100F7000C1FA06B010BD0000003801400010024068
:100F80007047FEE7F0B587B014216846FFF708F90F
:100F900023484269012189050A43426142690A40A6
:100FA0000592426949110A43426142690A40059229
:100FB000426949000A434261406909260840F60631
:100FC00005900022CB213046FFF708FA154F00228A
:100FD00002213846FFF702FA0125002400956946F0
:100FE000114802950194FFF741F9CB20009002943B
:100FF0006946019503943046FFF738F904206A46A4
:1010000031C269463046FFF731F902200090029460
:101010006946019503943846FFF728F907B0F0BDFB
:1010200000100240000400480014004810B50948B0
:1010300007490160052141600749C1609D21816028
:10104000FFF7D8F9002801D0FFF7D8F810BD00004D
:10105000003000402C000020FF0F000010B50A48AF
:10106000084901600A21416000218160322201614A
:10107000C2608161FFF774FD002801D0FFF7BEF860
:1010800010BD0000002000403C00002010B50C48BE
:101090000A4901600B490C22096841600021816006
:1010A000C16001618161C161016242614162FFF71A
:1010B000F7FE002801D0FFF7A1F810BD003801406D
:1010C0007C00002014000020FEE77047704710B538
:1010D000FFF7C2F910BD70B594B030216846FFF734
:1010E0005FF800240E940F940A20139400901020AF
:1010F000099404900D94012505200C941294C004C9
:1011000010941194039502260A90089607950B9463
:101110006846FFF747FB002801D072B6FEE70720BC
:101120000C900E9401210D960F940CA8FFF766FA0F
:10113000002801D072B6FEE710A810951294FFF7B0
:10114000E9F9002801D072B6FEE714B070BD70470F
:1011500010B51548FFF749FD144802220178491CD3
:10116000C9B201701248037812489942436901D309
:10117000934300E0134343610F4880220378092022
:10118000C0069942436901D3934300E0134343618E
:101190000A4A137840229942416901D3914300E001
:1011A0001143416110BD00003C0000200C000020F4
:1011B0000B000020000400480A0000200900002065
:1011C00070B50268174B184E984201D0B04203D157
:1011D0007024A2434C682243144C154D984208D009
:1011E000B04206D0134EB04203D0A04201D0A84274
:1011F00004D103263602B243CE6832438026B2437E
:101200004E69324302608A68C2620A68826298420A
:1012100003D0A04201D0A84201D109690163012194
:10122000416170BD002C01400004004000440140B9
:10123000004801400020004010B5818CC90707D04C
:1012400001684A6801235B049A43836A1A434A602F
:10125000818C890707D501684A6801231B049A43DA
:10126000C36A1A434A60818C490707D501684A68F6
:1012700001239B049A43036B1A434A60818C09073C
:1012800007D501684A680123DB039A43436B1A437D
:101290004A60818CC90607D50268916801231B0347
:1012A0009943836B19439160818C890607D5016846
:1012B0008A6801235B039A43C36B1A438A60818C5B
:1012C000490612D503685A6801210905046C8A434E
:1012D00022435A60026C8A4207D102685168032394
:1012E0005B059943436C19435160818C090607D50E
:1012F00001684A680123DB04806C9A4302434A6018
:1013000010BD0000F8B500260446C667FFF76CF86C
:10131000054620680068124F000709D501212B46B9
:10132000002249052046009700F0CEF800280DD194
:101330002068006840070BD501212B460022890553
:101340002046009700F0C0F8002801D00320F8BD27
:1013500020206067A067603426740020F8BD00007C
:10136000FFFFFF0110B5406A0022014640314A8369
:101370004A82FFF7EFFC10BD01680A68FF232133A2
:101380009A430A6001688A68520852008A602021E4
:10139000816700210166704770B504468068216945
:1013A000E269084361690025114322680843116816
:1013B000404B194001431160216848680322120321
:1013C0009043E26810434860A169206A226808439C
:1013D00091680B231B029943014391603648006BCF
:1013E0008007800F06D0012815D0022815D00328C9
:1013F0000FD010200122E169D203304E91422ED14C
:1014000000280CD002280DD004281DD008284AD16D
:1014100020E00220EEE70420ECE70820EAE7FFF7EF
:1014200071F913E06168264A48088018FEF75AFEF1
:1014300080B201461039B14235D82049491C0140DB
:101440000007400F084321E0FFF76CF96168400096
:101450004A08EAE76168012248081204E5E7002823
:1014600006D0022807D0042813D008281BD116E084
:10147000FFF748F90FE06168124A480811E0FEF7EB
:1014800031FE80B201461039B1420CD82168C860E3
:101490000AE0FFF747F961684A081018EFE761684A
:1014A00048088018EBE70125002020666066284682
:1014B00070BD0000F369FFFF00100240EFFF000065
:1014C0000024F40000127A00FFB581B005460F46F3
:1014D000044660350A9E38E0701C36D0FEF784FF63
:1014E0000499401AB04221D8002E1FD0206801680C
:1014F00049072AD5C069C043000526D401202168C8
:10150000C002086220680168FF22A1329143016095
:101510002068816849084900816020206067A067D1
:10152000E06700202874032005B0F0BD2068016842
:10153000FF22A13291430160206881684908490077
:10154000816020206067A067EBE72068C1693846AA
:10155000884305D0002103988142BDD00020E3E7F5
:101560000121F8E7F8B53348FFF7F6FB314800688A
:1015700001682022114301602F48C069800658D5B8
:101580002D48203080882D4CC5B2A0780026C82870
:1015900000D3A67060782A49002808D066705A20C7
:1015A0000870A52048700320A0708D7005E0A07819
:1015B000002802D00D54401CA0702148A1788078EA
:1015C0000127093088422CD81D4800F0B5F81C4886
:1015D0004179552902D0022918D021E0194AC17950
:1015E0001170194B827A1A70184A007B1070E278D9
:1015F000002A08D0481C904205D0002903D1144885
:1016000002783A430270491CE17009E0C17901296E
:1016100006D1007A002803D10D48017839430170C2
:10162000A670A52D04D120785A2801D16770A67024
:101630002570F8BD7C000020003801401800002013
:10164000FC00002006000020070000200800002009
:101650000E000020F8B5040C8BB2264682B25E4321
:101660000D0C1046370C584336048019002179417F
:1016700016466E43370C36048019794126466E4370
:101680008919F8BD8307FF22DB0E9A408907090EEE
:101690009940002808DB830809489B001B1818683C
:1016A00090430843186070470007000F083883080C
:1016B00004489B001B18D86990430843D8617047C1
:1016C00000E400E000ED00E002E008C8121F08C1DD
:1016D000002AFAD170477047002001E001C1121FB3
:1016E000002AFBD17047000010B510490878002887
:1016F0001BD0C20719D0400840000870FF202D30D1
:10170000FEF7A2FD0A48012201785140017009202C
:10171000C00641690222914341614169490849007B
:1017200041614B200349C000088010BD0E0000201D
:101730000D0000201000002030B50D4B0A2915D9EE
:1017400002228C1E04E0855C5B1B521C9BB2D2B251
:10175000A242F8DB40182038C17F1A0A8A4205D11C
:10176000807FD9B2814201D1012030BD002030BD3F
:10177000FFFF0000F0B528494888401C80B248802F
:101780008A88904215D90020244A48801678254A34
:10179000234B1578254A244F1478002E1AD0142E86
:1017A0000AD81870FF23913338708B80002C01D039
:1017B0001070F0BDFF20FBE7002D0FD018701070E7
:1017C000FF2291328A803978002901D03870F0BD2B
:1017D000FF20FBE7002DFAD1142EF8D9144D2D78F7
:1017E000192D02D21926751B00E001258D80387055
:1017F000052C01D201250D70094DFA2C2D7801D947
:10180000087005E00878002802D015706D1C01E012
:1018100015706D1E1D70F0BD000000200700002037
:101820000B000020060000200A0000200900002014
:1018300008000020FEF718FEFFF74DFCFFF7A2FBA3
:10184000FFF724FCFFF70AFCFFF7F0FBFF202D3029
:10185000FEF7FAFC3E480069C00705D14B213D4820
:10186000C9014160FFF712FC3B48012101603B4A7E
:10187000C906116001682C22114301600924E406A5
:1018800061690220814361616069400840006061D4
:101890000026374635463248FFF796F93249314837
:1018A0000860FFF721FFFFF765FF2A48761C0088D4
:1018B000B6B286420BD960690026082148406061B3
:1018C0000A20FEF7C1FC60690821484060610120E0
:1018D000FEF7BAFC002D09D02069400700D400258E
:1018E0006D1C2248ADB2854200D300252069400717
:1018F00009D418484B210088C900884203D3002F1F
:1019000001D1002D0FD020694007C7D5002FC5D0C9
:10191000FF202D30FEF798FC20694007BED5002738
:101920006D1CADB2BAE7FF202D30FEF78DFC2069AB
:101930004007B3D4606902210843606160690121F6
:1019400008436061FF202D30024901270880A5E788
:1019500000140048100000200038014000E100E0C1
:101960003C000020AAAA000000300040B80B000094
:10197000000000000000000001020304060708093F
:101980000000000001020304A81900080000002064
:101990002C000000C8160008D41900082C000020F4
:1019A0009C050000D816000800000000900100000F
:1019B00000000000000000005802000000C201000A
:1019C0000000000001000000040000000000000012
:0419D00000127A0087
:04000005080000B13E
:00000001FF
