:020000040800F2
:10000000C0040020D9000008410E00087B0D000844
:1000100000000000000000000000000000000000E0
:10002000000000000000000000000000450E000875
:100030000000000000000000430E0008470E00080A
:10004000090100080000000009010008090100087A
:100050000901000809010008090100080901000858
:10006000000000000901000809010008090100085A
:10007000090100080901000809010008000000004A
:10008000090100080000000000000000090100084C
:10009000000000000901000809010008090100082A
:1000A000000000000901000800000000091200081B
:1000B000090100080000000000000000090100081C
:1000C0000448854600F0AEF800480047E1130008F8
:1000D000C046C046C00400200C4880F308880C4885
:1000E0000168090E0B4A914205D10B480B4901608A
:1000F0000B480C4901600C4880470C480047FEE75C
:10010000FEE7FEE7FEE7FEE7FEE70000C004002092
:10011000040000001F000000181002400100000051
:100120000000014000000000C30E0008C1000008EC
:1001300030B50B46014600202022012409E00D467F
:10014000D5409D4205D31D469540491B2546954007
:1001500040191546521E002DF1DC30BDF0B51FB41C
:100160000646002082B005464024019100901BE025
:10017000019922460F46304600F020F8049A059B6C
:10018000801A994110D310461946224600F039F8DA
:10019000361A8F410197224601200021009F00F06E
:1001A00030F838184D4100902046641E0028DFDCEE
:1001B000019B00982946324607B0F0BD10B5202AB1
:1001C00004DB0846203AD040002110BD0B46D34046
:1001D000D0402024A21A91400843194610BDD2B243
:1001E00001E00270401C491EFBD270470022F6E776
:1001F00010B513460A4604461946FFF7F0FF20469D
:1002000010BD10B5202A04DB0146203A91400020A1
:1002100010BD914020239C1A0346E34019439040AF
:1002200010BD0000064C0125064E05E0E36807CC32
:100230002B430C3C98471034B442F7D3FFF744FFEC
:10024000781400089814000872B6FEE770B5002410
:10025000014620314A78022A03D004218163012417
:1002600016E0026813680E25AB431360026813683A
:100270005B085B0013600122056C1346AB40C56B45
:100280006B604A7000220A70416B002900D08847D9
:10029000204670BD70B5044600F0CCF80546601CE1
:1002A00002D004480078241800F0C4F8401BA04293
:1002B000FAD370BD20000020FCB500230124A1E08A
:1002C00027462A469F403A4073D04D68012D05D0FD
:1002D000022D03D0112D01D0122D16D185680326D1
:1002E000AC465D00AE46AE406546B543AC46CE6812
:1002F0007546AE4065462E43866046680D79BE431E
:10030000ED06ED0F9D4035434560C6685F0003254F
:10031000BD40AE46AE4335468E68BE402E43C660F5
:100320004E68022E01D0122E14D1DE08B600361807
:100330000196366A5D07B446EE0E0F25B54000966D
:100340006646AE43B4460D69009EB54066462E43F0
:10035000019D2E6206687546AE430D79AD07AD0F5F
:10036000BD40354305604D68ED004AD5284DAE6966
:100370002643AE61AD699E08ED07ED0F0095254D52
:10038000B6007519AC46AD689E07360F0F27B7400B
:10039000BD430927FF06B84201D1002710E01E4FD8
:1003A000B84201D101270BE01C4FB84202D102270D
:1003B00006E026E01A4FB84201D1032700E00527E6
:1003C000B7402F436546AF60164E35684F6895437A
:1003D000FF0300D51543356075684F689543BF032B
:1003E00000D515437560B5684F689543FF0200D589
:1003F0001543B560F5684F689543BF0200D51543B6
:10040000F5605B1C0A681546DA4000D058E7FCBD71
:1004100000100240000001400004004800080048AD
:10042000000C004800040140002A01D0816170479F
:1004300081627047014880687047000020000020FA
:100440000248816802788918816070472000002086
:1004500010B506480168102211430160002000F029
:1004600007F800F027F8002010BD0000002002402F
:1004700070B504460D4D7D202978C000FFF758FE69
:1004800001460B480068FFF753FE00F047FB0028C9
:1004900009D1042C07D200222146401E00F02AF880
:1004A00000206C6070BD012070BD000020000020A5
:1004B0002C00002008B508488169012211438161A0
:1004C000816911400091C26901040A43C261C06997
:1004D0000840009008BD000000100240002805DB25
:1004E000C106C90E0120884001490860704700001C
:1004F00000E100E010B500F007FF10BDF8B50546BB
:100500000068394CC00352D5E0690026C00007D40A
:10051000E16920040143E161E169014001260091A4
:1005200032480168C90510D4016882151143016081
:10053000FFF780FF074604E0FFF77CFFC01B64283D
:1005400024D82A480068C005F6D5206A03273F0250
:10055000384020D06968394081421CD0206A226A24
:10056000B843012109040A432262226A8A432262B3
:100570002062C0070FD0FFF75DFF009008E0FFF793
:1005800059FF0099411A1A48814201D90320F8BD48
:10059000206A8007F3D5206A6968B843084320625F
:1005A000002E04D0E169012000078143E161287831
:1005B000C00705D0206BA96880088000084320632D
:1005C0002878800605D5206B10218843E968084308
:1005D00020632868800305D5206B80218843296922
:1005E000084320630020F8BD001002400070004066
:1005F00088130000F8B50F46060059D03A4D286818
:10060000C007C00FB84209D22868400840003843EC
:1006100028602868C007C00FB84249D13068334C01
:1006200081070CD5400704D56068072109020843FB
:1006300060606068F0218843B1680843606030788A
:10064000C00726D0706801280ED0216802280ED07D
:10065000890700292CDA61688908890001436160F3
:10066000FFF7E8FE00900DE021688903F1E78901BA
:10067000EFE7FFF7DFFE0099411A1D48814201D9DB
:100680000320F8BD60680C21084071688900884229
:10069000EFD12868C007C00FB8420BD928684008BE
:1006A0004000384328602868C007C00FB84201D016
:1006B0000120F8BD3078400706D56068072109029F
:1006C0008843F1680843606000F028F86168094ACF
:1006D0000906090F515CC840074908600020FFF770
:1006E000C7FE0020F8BD00000020024000100240BC
:1006F00088130000601400082C00002004480549FD
:1007000000684968044A4905490F515CC840704770
:100710002C000020001002407014000810B513A334
:100720000FCB88B06C460FC414A30FCB0FC417496E
:100730004B680C201A4602401548042A13D0082A98
:1007400011D19A02120F6C46A45CC96A04AA090767
:10075000090F525CD903890F00231946FFF7FEFCED
:10076000214600F0B9FD08B010BD000002030405E9
:10077000060708090A0B0C0D0E0F101001020304E6
:1007800005060708090A0B0C0D0E0F100010024099
:1007900000127A00FEB5040071D02078DC4DC0074D
:1007A00049D068680007800F012820D068680007DA
:1007B000800F022804D16868C003800F022816D079
:1007C000012062680004012A18D08100002A01D0AB
:1007D000052A17D02A6882432A602868884328603F
:1007E000606800281BD0FFF725FE064613E0286846
:1007F000800320D560680028CED01CE02968014322
:100800002960EDE72A680A432A60F7E7FFF712FE3E
:10081000801B642870D828688003F7D50BE0FFF7A9
:1008200009FE064604E0FFF705FE801B6428F1D8A8
:1008300028688003F7D420780126800700283EDA54
:1008400068680007800F13D068680007800F0228CF
:1008500004D16868C003800F012809D0E06800282F
:1008600028681DD030432860FFF7E4FD07460CE000
:10087000286880070CD5E068012800D108E043E132
:10088000FFF7D8FDC01B0228C4D828688007F7D519
:100890002868F82188432169C900084328600EE0D0
:1008A000400840002860FFF7C5FD074604E0FFF759
:1008B000C1FDC01B0228ADD828688007F7D4207876
:1008C000000722D5E0690028686A0ED030436862CC
:1008D000FFF7B0FD074604E0FFF7ACFDC01B0228A0
:1008E00098D8686A8007F7D50FE040084000686232
:1008F000FFF7A0FD074605E09DE0FFF79BFDC01B4D
:10090000022887D8686A8007F7D420780427400730
:10091000002860DA00200190E869C00008D4E96985
:10092000B8060143E961E9690140012000910190A5
:1009300078480168C90511D4016882151143016026
:10094000FFF778FD009005E0FFF774FD0099401A6D
:10095000642870D86F480068C005F5D5A0680128E4
:100960000AD0002801D0052810D0286A400840008D
:100970002862286AB84301E0286A30432862A068E8
:10098000002812D0FFF756FD00900AE0286A38438D
:100990002862F1E7FFF74EFD0099411A5E48814257
:1009A00049D8286A8007F5D50DE0FFF743FD009090
:1009B00006E0FFF73FFD0099411A574881423AD8B7
:1009C000286A8007F5D40198002804D0E86901213D
:1009D00009078843E8612078C00635D56069012899
:1009E0000CD0401D686B23D038436863686B4008A7
:1009F00040006863FFF71EFD064622E0686B38433F
:100A00006863686B30436863FFF714FD064604E0D3
:100A1000FFF710FD801B02285BD8686B8007F7D5B5
:100A2000686BF8218843A169C900084368630BE03B
:100A3000B8436863F4E74CE0FFF7FCFC801B022836
:100A400047D8686B8007F7D4206A00285ED06968B1
:100A50000907890F022942D0012636060228286894
:100A600005D0B0432860FFF7E5FC044633E0B0430F
:100A70002860FFF7DFFC074604E0FFF7DBFCC01B44
:100A8000022826D828688001F7D4E86AE16A0009BC
:100A900000010843E862616AA06A084369687B2232
:100AA000D203914308436860286830432860FFF709
:100AB000C1FC044604E0FFF7BDFC001B022808D877
:100AC00028688001F7D521E0FFF7B4FC001B02285D
:100AD00001D90320FEBD28688001F5D416E0012865
:100AE000F8D06868E96A0322D203636A02409A4236
:100AF0000AD10907E26A090F914205D10F21890441
:100B00000840A16A884201D00120FEBD0020FEBD40
:100B1000001002400070004088130000094910B521
:100B2000401E884201D9012010BD074C606103219D
:100B3000081F00F0E9FB0020A061072020610020D1
:100B400010BD0000FFFFFF0000E000E07047000064
:100B5000F8B502680446D069116893684C4D0646A2
:100B60002E402025002E68D0DE07F60FFF27213704
:100B70000F40374375D0C70706D0CF0504D50127EE
:100B80001762E26F3A43E267820708D5DA0706D0B8
:100B9000276802223A62E26F04273A43E26742077B
:100BA00008D5DA0706D0236804221A62E26F02230E
:100BB0001A43E267020709D50A462A40324305D0A4
:100BC000236808221A62E36F1343E367020508D51E
:100BD0004A0106D501222368D2021A62E26F2A4333
:100BE000E267E26F002A30D0800606D5880604D579
:100BF000216E002901D020468847E06F216889686E
:100C0000490602D42821084224D0204600F0FAF9EF
:100C100020688168490619D5816840229143816026
:100C2000E06E002812D01B494163E06EFFF70EFB17
:100C300000280AD0E06E416B06E0830611D58B06D2
:100C40000FD5216E12E020468847F8BD2046FFF7F9
:100C50007DFFF8BD2046FFF779FF0020E067F8BD73
:100C6000FFE7030605D50B0603D5616E0029EAD11F
:100C7000F5E74006F3D54806F1D511682046402334
:100C80009943116065670021616600F075F8E6E739
:100C90000F080000F10F000810B5040003D0606FCA
:100CA000002802D007E0012010BD0021702001556E
:100CB000204600F027F82420606720680168490872
:100CC00049000160204600F0ADF90128ECD0606ACF
:100CD000002802D0204600F0F5F820684168012283
:100CE000D20291434160206881680822914381606B
:100CF00020680168012211430160204600F048F994
:100D000010BD000010B586B0044614216846FFF7F8
:100D10006DFA17492068884227D116488269012157
:100D200089030A43826182690A4005924269C900C7
:100D30000A43426140690840059003204002009048
:100D400002200190002002900320039001200490D3
:100D500009206946C006FFF7AFFA002211461B20A2
:100D6000FFF7C8FB1B20FFF7B9FB06B010BD000062
:100D700000380140001002407047FEE7F0B587B030
:100D800014216846FFF732FA1C484269012189059F
:100D90000A43426142690A400592426949110A4385
:100DA00042614069164E08400590002202213046FB
:100DB000FFF73AFB0927FF06002206213846FFF716
:100DC00033FB02200024012500900294694601951E
:100DD00003943046FFF770FA0620009002946946AB
:100DE000019503943846FFF767FA08206A4631C236
:100DF00069463846FFF760FA07B0F0BD00100240C0
:100E00000014004810B50C480A4901600B490C2237
:100E10000968416000218160C16001618161C16137
:100E2000016242614162FFF737FF002801D0FFF7FE
:100E30000BFA10BD003801403000002004000020F3
:100E4000FEE77047704710B5FFF7FAFA10BD70B5AE
:100E500096B030216846FFF7C9F900240C940D9430
:100E60000E94142110A80F94FFF7C0F910200490DD
:100E70000225C002099001260095400103960A90C0
:100E800008950B946846FFF785FC002801D072B6E0
:100E9000FEE707200C900E9401210D950F940CA8ED
:100EA000FFF7A8FB002801D072B6FEE710A8109645
:100EB0001294FFF723FB002801D072B6FEE716B0AC
:100EC00070BD704710B5818CC90707D001684A68AA
:100ED00001235B049A43836A1A434A60818C890721
:100EE00007D501684A6801231B049A43C36A1A4361
:100EF0004A60818C490707D501684A6801239B0431
:100F00009A43036B1A434A60818C090707D501682D
:100F10004A680123DB039A43436B1A434A60818C7E
:100F2000C90607D50268916801231B039943836BA7
:100F300019439160818C890607D501688A6801236D
:100F40005B039A43C36B1A438A60818C490612D5AE
:100F500003685A6801210905046C8A4322435A60D8
:100F6000026C8A4207D10268516803235B059943EA
:100F7000436C19435160818C090607D501684A68A2
:100F80000123DB04806C9A4302434A6010BD0000D9
:100F9000F8B500260446C667FFF74CFA05462068F8
:100FA0000068124F000709D501212B460022490590
:100FB0002046009700F0DAF800280DD1206800687C
:100FC00040070BD501212B460022890520460097BA
:100FD00000F0CCF8002801D00320F8BD2020606785
:100FE000A067603426740020F8BD0000FFFFFF01F9
:100FF00010B5406A0022014640314A834A82FFF719
:10100000A5FD10BD01680A68FF2321339A430A60D9
:1010100001688A68520852008A6020218167002195
:101020000166704770B5044680682169E26908432B
:10103000616900251143226808431168444B194037
:101040000143116021684868032212039043E2685B
:1010500010434860A169206A2268084391680B2305
:101060001B029943014391603A492068884210D19C
:101070003948006B8007800F11D0012805D0022865
:1010800005D003280AD1022009E0042007E0082047
:1010900005E03249884201D1002000E01020012201
:1010A000E169D2032E4E914228D1002806D00228B1
:1010B00007D0042817D0082844D11AE0FFF71EFBF8
:1010C00013E06168274A48088018FFF731F880B2BA
:1010D00001461039B14235D82149491C0140000769
:1010E000400F084321E0FFF719FB616840004A0800
:1010F000EAE76168012248081204E5E7002806D003
:10110000022807D0042813D008281BD116E0FFF7C7
:10111000F5FA0FE06168144A480811E0FFF708F893
:1011200080B201461039B1420CD82168C8600AE08B
:10113000FFF7F4FA61684A081018EFE76168480899
:101140008018EBE70125002020666066284670BD08
:10115000F369FFEF003801400010024000440040F6
:10116000EFFF00000024F40000127A00FFB581B008
:1011700005460F46044660350A9E38E0701C36D09E
:10118000FFF758F90499401AB04221D8002E1FD019
:101190002068016849072AD5C069C043000526D4E4
:1011A00001202168C002086220680168FF22A13284
:1011B00091430160206881684908490081602020CE
:1011C0006067A067E06700202874032005B0F0BDC9
:1011D00020680168FF22A132914301602068816884
:1011E00049084900816020206067A067EBE720681C
:1011F000C1693846884305D0002103988142BDD09B
:101200000020E3E70121F8E7F8B52E48FFF7A0FC3E
:101210002C48006801682022114301602A48C069F7
:10122000800615D52848203080880126C2B20025C6
:10123000264C27485A2A0CD00178FF2A13D00929B6
:101240003AD900216554491CC9B20A29FAD305705C
:10125000F8BD00216554491CC9B20A29FAD35A21A4
:1012600021700670F8BD092907D0EAD20021655423
:10127000491CC9B20A29FAD3E9E715486272134931
:10128000401C00F09FF8134F002802D038783043FC
:1012900009E00F480D490B3000F094F8002803D006
:1012A000387802210843387000202554401CC0B211
:1012B0000A28FAD30648CAE70029D3D06254491C49
:1012C0000170F8BD3000002000380140B00000205F
:1012D0000800002001000020F8B5040C8BB226465F
:1012E00082B25E430D0C1046370C58433604801909
:1012F0000021794116466E43370C36048019794136
:1013000026466E438919F8BD8307FF22DB0E9A40FB
:101310008907090E9940002808DB830809489B00CB
:101320001B18186890430843186070470007000FA7
:101330000838830804489B001B18D8699043084369
:10134000D861704700E400E000ED00E002E008C86A
:10135000121F08C1002AFAD170477047002001E02F
:1013600001C1121F002AFBD17047000010B5124CBA
:101370006178002916D01148CA0714D049084900DD
:101380006170FEF787FF2078012148402070092016
:10139000C006416904225140416109484169022265
:1013A0005140416110BD8A07FCD5FD22114061709A
:1013B000FEF770FF10BD0000000000202C010000AF
:1013C0000014004810B50022835C8C5CA34201D05D
:1013D000002010BD521CD2B20A2AF5D3012010BD44
:1013E000FFF736F8FFF733FDFFF7C8FCFFF70AFDFC
:1013F000FF202D30FEF74EFF0925ED062869154820
:1014000001210160144AC906116001682C221143B0
:1014100001606869042188436861104841690226B7
:10142000B14341614B270024FF00FFF79FFF641C7D
:10143000A4B2BC4209D968690024704068610A20DE
:10144000FEF728FF6869704068610120FEF722FFFF
:10145000EBE700000038014000E100E00014004824
:101460000000000000000000010203040607080954
:10147000000000000102030498140008000000208E
:10148000300000004C130008C81400083000002091
:10149000900400005C1300080000000000C201007E
:1014A000005AA5013D200270012EFF5AA501203FE0
:1014B000011C0181FF000000010000000400000089
:0814C0000000000000127A0098
:04000005080000C12E
:00000001FF
